{
  "contractName": "PatientConsent",
  "abi": [
    {
      "anonymous": false,
      "inputs": [
        {
          "indexed": false,
          "internalType": "address",
          "name": "patient",
          "type": "address"
        },
        {
          "indexed": false,
          "internalType": "string",
          "name": "dataHash",
          "type": "string"
        },
        {
          "indexed": false,
          "internalType": "bool",
          "name": "consentGiven",
          "type": "bool"
        },
        {
          "indexed": false,
          "internalType": "uint256",
          "name": "timestamp",
          "type": "uint256"
        }
      ],
      "name": "ConsentUpdated",
      "type": "event"
    },
    {
      "inputs": [
        {
          "internalType": "address",
          "name": "",
          "type": "address"
        }
      ],
      "name": "patientConsents",
      "outputs": [
        {
          "internalType": "address",
          "name": "patient",
          "type": "address"
        },
        {
          "internalType": "string",
          "name": "dataHash",
          "type": "string"
        },
        {
          "internalType": "uint256",
          "name": "timestamp",
          "type": "uint256"
        },
        {
          "internalType": "bool",
          "name": "consentGiven",
          "type": "bool"
        }
      ],
      "stateMutability": "view",
      "type": "function"
    },
    {
      "inputs": [
        {
          "internalType": "string",
          "name": "dataHash",
          "type": "string"
        },
        {
          "internalType": "bool",
          "name": "consentGiven",
          "type": "bool"
        }
      ],
      "name": "storeConsent",
      "outputs": [],
      "stateMutability": "nonpayable",
      "type": "function"
    },
    {
      "inputs": [
        {
          "internalType": "address",
          "name": "patient",
          "type": "address"
        }
      ],
      "name": "queryConsent",
      "outputs": [
        {
          "internalType": "bool",
          "name": "consentGiven",
          "type": "bool"
        },
        {
          "internalType": "uint256",
          "name": "timestamp",
          "type": "uint256"
        },
        {
          "internalType": "string",
          "name": "dataHash",
          "type": "string"
        }
      ],
      "stateMutability": "view",
      "type": "function"
    }
  ],
  "bytecode": "0x608060405234801561001057600080fd5b5061096b806100206000396000f3fe608060405234801561001057600080fd5b50600436106100415760003560e01c80635799396e14610046578063dd4d786d14610062578063f2ebf1b214610094575b600080fd5b610060600480360381019061005b91906105cf565b6100c7565b005b61007c600480360381019061007791906105a6565b610210565b60405161008b93929190610721565b60405180910390f35b6100ae60048036038101906100a991906105a6565b61038c565b6040516100be94939291906106d5565b60405180910390f35b60405180608001604052803373ffffffffffffffffffffffffffffffffffffffff1681526020018381526020014281526020018215158152506000803373ffffffffffffffffffffffffffffffffffffffff1673ffffffffffffffffffffffffffffffffffffffff16815260200190815260200160002060008201518160000160006101000a81548173ffffffffffffffffffffffffffffffffffffffff021916908373ffffffffffffffffffffffffffffffffffffffff16021790555060208201518160010190805190602001906101a1929190610471565b506040820151816002015560608201518160030160006101000a81548160ff0219169083151502179055509050507f68c133fdc39fe2ab12df0c3521d0f60c5f8d623a2c1d71e56b72e4b8287d6de1338383426040516102049493929190610689565b60405180910390a15050565b600080606060008060008673ffffffffffffffffffffffffffffffffffffffff1673ffffffffffffffffffffffffffffffffffffffff1681526020019081526020016000206040518060800160405290816000820160009054906101000a900473ffffffffffffffffffffffffffffffffffffffff1673ffffffffffffffffffffffffffffffffffffffff1673ffffffffffffffffffffffffffffffffffffffff1681526020016001820180546102c690610866565b80601f01602080910402602001604051908101604052809291908181526020018280546102f290610866565b801561033f5780601f106103145761010080835404028352916020019161033f565b820191906000526020600020905b81548152906001019060200180831161032257829003601f168201915b50505050508152602001600282015481526020016003820160009054906101000a900460ff1615151515815250509050806060015181604001518260200151935093509350509193909250565b60006020528060005260406000206000915090508060000160009054906101000a900473ffffffffffffffffffffffffffffffffffffffff16908060010180546103d590610866565b80601f016020809104026020016040519081016040528092919081815260200182805461040190610866565b801561044e5780601f106104235761010080835404028352916020019161044e565b820191906000526020600020905b81548152906001019060200180831161043157829003601f168201915b5050505050908060020154908060030160009054906101000a900460ff16905084565b82805461047d90610866565b90600052602060002090601f01602090048101928261049f57600085556104e6565b82601f106104b857805160ff19168380011785556104e6565b828001600101855582156104e6579182015b828111156104e55782518255916020019190600101906104ca565b5b5090506104f391906104f7565b5090565b5b808211156105105760008160009055506001016104f8565b5090565b600061052761052284610790565b61075f565b90508281526020810184848401111561053f57600080fd5b61054a848285610824565b509392505050565b60008135905061056181610907565b92915050565b6000813590506105768161091e565b92915050565b600082601f83011261058d57600080fd5b813561059d848260208601610514565b91505092915050565b6000602082840312156105b857600080fd5b60006105c684828501610552565b91505092915050565b600080604083850312156105e257600080fd5b600083013567ffffffffffffffff8111156105fc57600080fd5b6106088582860161057c565b925050602061061985828601610567565b9150509250929050565b61062c816107dc565b82525050565b61063b816107ee565b82525050565b600061064c826107c0565b61065681856107cb565b9350610666818560208601610833565b61066f816108f6565b840191505092915050565b6106838161081a565b82525050565b600060808201905061069e6000830187610623565b81810360208301526106b08186610641565b90506106bf6040830185610632565b6106cc606083018461067a565b95945050505050565b60006080820190506106ea6000830187610623565b81810360208301526106fc8186610641565b905061070b604083018561067a565b6107186060830184610632565b95945050505050565b60006060820190506107366000830186610632565b610743602083018561067a565b81810360408301526107558184610641565b9050949350505050565b6000604051905081810181811067ffffffffffffffff82111715610786576107856108c7565b5b8060405250919050565b600067ffffffffffffffff8211156107ab576107aa6108c7565b5b601f19601f8301169050602081019050919050565b600081519050919050565b600082825260208201905092915050565b60006107e7826107fa565b9050919050565b60008115159050919050565b600073ffffffffffffffffffffffffffffffffffffffff82169050919050565b6000819050919050565b82818337600083830152505050565b60005b83811015610851578082015181840152602081019050610836565b83811115610860576000848401525b50505050565b6000600282049050600182168061087e57607f821691505b6020821081141561089257610891610898565b5b50919050565b7f4e487b7100000000000000000000000000000000000000000000000000000000600052602260045260246000fd5b7f4e487b7100000000000000000000000000000000000000000000000000000000600052604160045260246000fd5b6000601f19601f8301169050919050565b610910816107dc565b811461091b57600080fd5b50565b610927816107ee565b811461093257600080fd5b5056fea264697066735822122045b8d9fcec1d4e953a039dac3df6f519249eb25cae986502f1a57c764505701e64736f6c63430008000033",
  "immutableReferences": {},
  "source": "// SPDX-License-Identifier: MIT\r\npragma solidity ^0.8.0;\r\n\r\ncontract PatientConsent {\r\n    struct Consent {\r\n        address patient;\r\n        string dataHash;  // IPFS or any other hash to uniquely represent data\r\n        uint timestamp;\r\n        bool consentGiven;\r\n    }\r\n\r\n    // Mapping to store consent information for each patient\r\n    mapping(address => Consent) public patientConsents;\r\n\r\n    // Event to emit when a patient's consent is updated\r\n    event ConsentUpdated(address patient, string dataHash, bool consentGiven, uint timestamp);\r\n\r\n    // Function to store the patient's consent information\r\n    function storeConsent(string memory dataHash, bool consentGiven) public {\r\n        patientConsents[msg.sender] = Consent({\r\n            patient: msg.sender,\r\n            dataHash: dataHash,\r\n            timestamp: block.timestamp,\r\n            consentGiven: consentGiven\r\n        });\r\n\r\n        // Emit an event when consent is updated\r\n        emit ConsentUpdated(msg.sender, dataHash, consentGiven, block.timestamp);\r\n    }\r\n\r\n    // Function to query a patient's consent\r\n    function queryConsent(address patient) public view returns (bool consentGiven, uint timestamp, string memory dataHash) {\r\n        Consent memory consent = patientConsents[patient];\r\n        return (consent.consentGiven, consent.timestamp, consent.dataHash);\r\n    }\r\n}\r\n",
  "sourcePath": "D:\\federated learning - Copy\\contracts\\PatientConsent.sol",
  "compiler": {
    "name": "solc",
    "version": "0.8.0+commit.c7dfd78e.Emscripten.clang"
  },
  "schemaVersion": "3.4.16",
  "updatedAt": "2025-04-24T06:39:36.799Z",
  "devdoc": {
    "kind": "dev",
    "methods": {},
    "version": 1
  },
  "userdoc": {
    "kind": "user",
    "methods": {},
    "version": 1
  }
}